{
  "_format": "hh-sol-artifact-1",
  "contractName": "NFT",
  "sourceName": "contracts/NFT.sol",
  "abi": [
    {
      "inputs": [],
      "stateMutability": "nonpayable",
      "type": "constructor"
    },
    {
      "anonymous": false,
      "inputs": [
        {
          "indexed": true,
          "internalType": "address",
          "name": "owner",
          "type": "address"
        },
        {
          "indexed": true,
          "internalType": "address",
          "name": "approved",
          "type": "address"
        },
        {
          "indexed": true,
          "internalType": "uint256",
          "name": "tokenId",
          "type": "uint256"
        }
      ],
      "name": "Approval",
      "type": "event"
    },
    {
      "anonymous": false,
      "inputs": [
        {
          "indexed": true,
          "internalType": "address",
          "name": "owner",
          "type": "address"
        },
        {
          "indexed": true,
          "internalType": "address",
          "name": "operator",
          "type": "address"
        },
        {
          "indexed": false,
          "internalType": "bool",
          "name": "approved",
          "type": "bool"
        }
      ],
      "name": "ApprovalForAll",
      "type": "event"
    },
    {
      "anonymous": false,
      "inputs": [
        {
          "indexed": true,
          "internalType": "address",
          "name": "previousOwner",
          "type": "address"
        },
        {
          "indexed": true,
          "internalType": "address",
          "name": "newOwner",
          "type": "address"
        }
      ],
      "name": "OwnershipTransferred",
      "type": "event"
    },
    {
      "anonymous": false,
      "inputs": [
        {
          "indexed": true,
          "internalType": "address",
          "name": "from",
          "type": "address"
        },
        {
          "indexed": true,
          "internalType": "address",
          "name": "to",
          "type": "address"
        },
        {
          "indexed": true,
          "internalType": "uint256",
          "name": "tokenId",
          "type": "uint256"
        }
      ],
      "name": "Transfer",
      "type": "event"
    },
    {
      "inputs": [],
      "name": "MINT_PRICE",
      "outputs": [
        {
          "internalType": "uint256",
          "name": "",
          "type": "uint256"
        }
      ],
      "stateMutability": "view",
      "type": "function"
    },
    {
      "inputs": [],
      "name": "TOTAL_SUPPLY",
      "outputs": [
        {
          "internalType": "uint256",
          "name": "",
          "type": "uint256"
        }
      ],
      "stateMutability": "view",
      "type": "function"
    },
    {
      "inputs": [
        {
          "internalType": "address",
          "name": "to",
          "type": "address"
        },
        {
          "internalType": "uint256",
          "name": "tokenId",
          "type": "uint256"
        }
      ],
      "name": "approve",
      "outputs": [],
      "stateMutability": "nonpayable",
      "type": "function"
    },
    {
      "inputs": [
        {
          "internalType": "address",
          "name": "owner",
          "type": "address"
        }
      ],
      "name": "balanceOf",
      "outputs": [
        {
          "internalType": "uint256",
          "name": "",
          "type": "uint256"
        }
      ],
      "stateMutability": "view",
      "type": "function"
    },
    {
      "inputs": [],
      "name": "baseTokenURI",
      "outputs": [
        {
          "internalType": "string",
          "name": "",
          "type": "string"
        }
      ],
      "stateMutability": "view",
      "type": "function"
    },
    {
      "inputs": [
        {
          "internalType": "uint256",
          "name": "tokenId",
          "type": "uint256"
        }
      ],
      "name": "getApproved",
      "outputs": [
        {
          "internalType": "address",
          "name": "",
          "type": "address"
        }
      ],
      "stateMutability": "view",
      "type": "function"
    },
    {
      "inputs": [],
      "name": "getCurrentTokenId",
      "outputs": [
        {
          "internalType": "uint256",
          "name": "",
          "type": "uint256"
        }
      ],
      "stateMutability": "view",
      "type": "function"
    },
    {
      "inputs": [
        {
          "internalType": "address",
          "name": "owner",
          "type": "address"
        },
        {
          "internalType": "address",
          "name": "operator",
          "type": "address"
        }
      ],
      "name": "isApprovedForAll",
      "outputs": [
        {
          "internalType": "bool",
          "name": "",
          "type": "bool"
        }
      ],
      "stateMutability": "view",
      "type": "function"
    },
    {
      "inputs": [
        {
          "internalType": "address",
          "name": "recipient",
          "type": "address"
        }
      ],
      "name": "mintTo",
      "outputs": [
        {
          "internalType": "uint256",
          "name": "",
          "type": "uint256"
        }
      ],
      "stateMutability": "payable",
      "type": "function"
    },
    {
      "inputs": [],
      "name": "name",
      "outputs": [
        {
          "internalType": "string",
          "name": "",
          "type": "string"
        }
      ],
      "stateMutability": "view",
      "type": "function"
    },
    {
      "inputs": [],
      "name": "owner",
      "outputs": [
        {
          "internalType": "address",
          "name": "",
          "type": "address"
        }
      ],
      "stateMutability": "view",
      "type": "function"
    },
    {
      "inputs": [
        {
          "internalType": "uint256",
          "name": "tokenId",
          "type": "uint256"
        }
      ],
      "name": "ownerOf",
      "outputs": [
        {
          "internalType": "address",
          "name": "",
          "type": "address"
        }
      ],
      "stateMutability": "view",
      "type": "function"
    },
    {
      "inputs": [
        {
          "internalType": "address",
          "name": "dest",
          "type": "address"
        }
      ],
      "name": "payments",
      "outputs": [
        {
          "internalType": "uint256",
          "name": "",
          "type": "uint256"
        }
      ],
      "stateMutability": "view",
      "type": "function"
    },
    {
      "inputs": [],
      "name": "renounceOwnership",
      "outputs": [],
      "stateMutability": "nonpayable",
      "type": "function"
    },
    {
      "inputs": [
        {
          "internalType": "address",
          "name": "from",
          "type": "address"
        },
        {
          "internalType": "address",
          "name": "to",
          "type": "address"
        },
        {
          "internalType": "uint256",
          "name": "tokenId",
          "type": "uint256"
        }
      ],
      "name": "safeTransferFrom",
      "outputs": [],
      "stateMutability": "nonpayable",
      "type": "function"
    },
    {
      "inputs": [
        {
          "internalType": "address",
          "name": "from",
          "type": "address"
        },
        {
          "internalType": "address",
          "name": "to",
          "type": "address"
        },
        {
          "internalType": "uint256",
          "name": "tokenId",
          "type": "uint256"
        },
        {
          "internalType": "bytes",
          "name": "data",
          "type": "bytes"
        }
      ],
      "name": "safeTransferFrom",
      "outputs": [],
      "stateMutability": "nonpayable",
      "type": "function"
    },
    {
      "inputs": [
        {
          "internalType": "address",
          "name": "operator",
          "type": "address"
        },
        {
          "internalType": "bool",
          "name": "approved",
          "type": "bool"
        }
      ],
      "name": "setApprovalForAll",
      "outputs": [],
      "stateMutability": "nonpayable",
      "type": "function"
    },
    {
      "inputs": [
        {
          "internalType": "string",
          "name": "_baseTokenURI",
          "type": "string"
        }
      ],
      "name": "setBaseTokenURI",
      "outputs": [],
      "stateMutability": "nonpayable",
      "type": "function"
    },
    {
      "inputs": [
        {
          "internalType": "bytes4",
          "name": "interfaceId",
          "type": "bytes4"
        }
      ],
      "name": "supportsInterface",
      "outputs": [
        {
          "internalType": "bool",
          "name": "",
          "type": "bool"
        }
      ],
      "stateMutability": "view",
      "type": "function"
    },
    {
      "inputs": [],
      "name": "symbol",
      "outputs": [
        {
          "internalType": "string",
          "name": "",
          "type": "string"
        }
      ],
      "stateMutability": "view",
      "type": "function"
    },
    {
      "inputs": [
        {
          "internalType": "uint256",
          "name": "tokenId",
          "type": "uint256"
        }
      ],
      "name": "tokenURI",
      "outputs": [
        {
          "internalType": "string",
          "name": "",
          "type": "string"
        }
      ],
      "stateMutability": "view",
      "type": "function"
    },
    {
      "inputs": [
        {
          "internalType": "address",
          "name": "from",
          "type": "address"
        },
        {
          "internalType": "address",
          "name": "to",
          "type": "address"
        },
        {
          "internalType": "uint256",
          "name": "tokenId",
          "type": "uint256"
        }
      ],
      "name": "transferFrom",
      "outputs": [],
      "stateMutability": "nonpayable",
      "type": "function"
    },
    {
      "inputs": [
        {
          "internalType": "address",
          "name": "newOwner",
          "type": "address"
        }
      ],
      "name": "transferOwnership",
      "outputs": [],
      "stateMutability": "nonpayable",
      "type": "function"
    },
    {
      "inputs": [
        {
          "internalType": "address payable",
          "name": "payee",
          "type": "address"
        }
      ],
      "name": "withdrawPayments",
      "outputs": [],
      "stateMutability": "nonpayable",
      "type": "function"
    }
  ],
  "bytecode": "0x60a06040523480156200001157600080fd5b506040518060400160405280600b81526020017f4e46545475746f7269616c0000000000000000000000000000000000000000008152506040518060400160405280600381526020017f4e4654000000000000000000000000000000000000000000000000000000000081525081600090805190602001906200009692919062000230565b508060019080519060200190620000af92919062000230565b505050604051620000c090620002c1565b604051809103906000f080158015620000dd573d6000803e3d6000fd5b5073ffffffffffffffffffffffffffffffffffffffff1660808173ffffffffffffffffffffffffffffffffffffffff1660601b8152505062000134620001286200016260201b60201c565b6200016a60201b60201c565b60405180602001604052806000815250600890805190602001906200015b92919062000230565b5062000353565b600033905090565b6000600660009054906101000a900473ffffffffffffffffffffffffffffffffffffffff16905081600660006101000a81548173ffffffffffffffffffffffffffffffffffffffff021916908373ffffffffffffffffffffffffffffffffffffffff1602179055508173ffffffffffffffffffffffffffffffffffffffff168173ffffffffffffffffffffffffffffffffffffffff167f8be0079c531659141344cd1fd0a4f28419497f9722a3daafe3b4186f6b6457e060405160405180910390a35050565b8280546200023e90620002ee565b90600052602060002090601f016020900481019282620002625760008555620002ae565b82601f106200027d57805160ff1916838001178555620002ae565b82800160010185558215620002ae579182015b82811115620002ad57825182559160200191906001019062000290565b5b509050620002bd9190620002cf565b5090565b610bb780620034e983390190565b5b80821115620002ea576000816000905550600101620002d0565b5090565b600060028204905060018216806200030757607f821691505b602082108114156200031e576200031d62000324565b5b50919050565b7f4e487b7100000000000000000000000000000000000000000000000000000000600052602260045260246000fd5b60805160601c6131706200037960003960008181610dd5015261148d01526131706000f3fe60806040526004361061014b5760003560e01c8063755edd17116100b6578063c002d23d1161006f578063c002d23d14610481578063c87b56dd146104ac578063d547cfb7146104e9578063e2982c2114610514578063e985e9c514610551578063f2fde38b1461058e5761014b565b8063755edd171461037e5780638da5cb5b146103ae578063902d55a5146103d957806395d89b4114610404578063a22cb4651461042f578063b88d4fde146104585761014b565b806331b3eb941161010857806331b3eb941461027057806342842e0e1461029957806356189236146102c25780636352211e146102ed57806370a082311461032a578063715018a6146103675761014b565b806301ffc9a71461015057806306fdde031461018d578063081812fc146101b8578063095ea7b3146101f557806323b872dd1461021e57806330176e1314610247575b600080fd5b34801561015c57600080fd5b5061017760048036038101906101729190612264565b6105b7565b60405161018491906126db565b60405180910390f35b34801561019957600080fd5b506101a2610699565b6040516101af91906126f6565b60405180910390f35b3480156101c457600080fd5b506101df60048036038101906101da91906122f7565b61072b565b6040516101ec9190612659565b60405180910390f35b34801561020157600080fd5b5061021c60048036038101906102179190612228565b610771565b005b34801561022a57600080fd5b5061024560048036038101906102409190612122565b610889565b005b34801561025357600080fd5b5061026e600480360381019061026991906122b6565b6108e9565b005b34801561027c57600080fd5b50610297600480360381019061029291906120bd565b61090b565b005b3480156102a557600080fd5b506102c060048036038101906102bb9190612122565b61091f565b005b3480156102ce57600080fd5b506102d761093f565b6040516102e491906128f8565b60405180910390f35b3480156102f957600080fd5b50610314600480360381019061030f91906122f7565b610950565b6040516103219190612659565b60405180910390f35b34801561033657600080fd5b50610351600480360381019061034c9190612094565b610a02565b60405161035e91906128f8565b60405180910390f35b34801561037357600080fd5b5061037c610aba565b005b61039860048036038101906103939190612094565b610ace565b6040516103a591906128f8565b60405180910390f35b3480156103ba57600080fd5b506103c3610b96565b6040516103d09190612659565b60405180910390f35b3480156103e557600080fd5b506103ee610bc0565b6040516103fb91906128f8565b60405180910390f35b34801561041057600080fd5b50610419610bc6565b60405161042691906126f6565b60405180910390f35b34801561043b57600080fd5b50610456600480360381019061045191906121ec565b610c58565b005b34801561046457600080fd5b5061047f600480360381019061047a9190612171565b610c6e565b005b34801561048d57600080fd5b50610496610cd0565b6040516104a391906128f8565b60405180910390f35b3480156104b857600080fd5b506104d360048036038101906104ce91906122f7565b610cdb565b6040516104e091906126f6565b60405180910390f35b3480156104f557600080fd5b506104fe610d43565b60405161050b91906126f6565b60405180910390f35b34801561052057600080fd5b5061053b60048036038101906105369190612094565b610dd1565b60405161054891906128f8565b60405180910390f35b34801561055d57600080fd5b50610578600480360381019061057391906120e6565b610e83565b60405161058591906126db565b60405180910390f35b34801561059a57600080fd5b506105b560048036038101906105b09190612094565b610f17565b005b60007f80ac58cd000000000000000000000000000000000000000000000000000000007bffffffffffffffffffffffffffffffffffffffffffffffffffffffff1916827bffffffffffffffffffffffffffffffffffffffffffffffffffffffff1916148061068257507f5b5e139f000000000000000000000000000000000000000000000000000000007bffffffffffffffffffffffffffffffffffffffffffffffffffffffff1916827bffffffffffffffffffffffffffffffffffffffffffffffffffffffff1916145b80610692575061069182610f9b565b5b9050919050565b6060600080546106a890612b60565b80601f01602080910402602001604051908101604052809291908181526020018280546106d490612b60565b80156107215780601f106106f657610100808354040283529160200191610721565b820191906000526020600020905b81548152906001019060200180831161070457829003601f168201915b5050505050905090565b600061073682611005565b6004600083815260200190815260200160002060009054906101000a900473ffffffffffffffffffffffffffffffffffffffff169050919050565b600061077c82610950565b90508073ffffffffffffffffffffffffffffffffffffffff168373ffffffffffffffffffffffffffffffffffffffff1614156107ed576040517f08c379a00000000000000000000000000000000000000000000000000000000081526004016107e490612898565b60405180910390fd5b8073ffffffffffffffffffffffffffffffffffffffff1661080c611050565b73ffffffffffffffffffffffffffffffffffffffff16148061083b575061083a81610835611050565b610e83565b5b61087a576040517f08c379a000000000000000000000000000000000000000000000000000000000815260040161087190612818565b60405180910390fd5b6108848383611058565b505050565b61089a610894611050565b82611111565b6108d9576040517f08c379a00000000000000000000000000000000000000000000000000000000081526004016108d0906128d8565b60405180910390fd5b6108e48383836111a6565b505050565b6108f161140d565b8060089080519060200190610907929190611e8e565b5050565b61091361140d565b61091c8161148b565b50565b61093a83838360405180602001604052806000815250610c6e565b505050565b600061094b6007611519565b905090565b6000806002600084815260200190815260200160002060009054906101000a900473ffffffffffffffffffffffffffffffffffffffff169050600073ffffffffffffffffffffffffffffffffffffffff168173ffffffffffffffffffffffffffffffffffffffff1614156109f9576040517f08c379a00000000000000000000000000000000000000000000000000000000081526004016109f090612878565b60405180910390fd5b80915050919050565b60008073ffffffffffffffffffffffffffffffffffffffff168273ffffffffffffffffffffffffffffffffffffffff161415610a73576040517f08c379a0000000000000000000000000000000000000000000000000000000008152600401610a6a906127f8565b60405180910390fd5b600360008373ffffffffffffffffffffffffffffffffffffffff1673ffffffffffffffffffffffffffffffffffffffff168152602001908152602001600020549050919050565b610ac261140d565b610acc6000611527565b565b600080610adb6007611519565b90506127108110610b21576040517f08c379a0000000000000000000000000000000000000000000000000000000008152600401610b18906128b8565b60405180910390fd5b661c6bf5263400003414610b6a576040517f08c379a0000000000000000000000000000000000000000000000000000000008152600401610b61906127d8565b60405180910390fd5b610b7460076115ed565b6000610b806007611519565b9050610b8c8482611603565b8092505050919050565b6000600660009054906101000a900473ffffffffffffffffffffffffffffffffffffffff16905090565b61271081565b606060018054610bd590612b60565b80601f0160208091040260200160405190810160405280929190818152602001828054610c0190612b60565b8015610c4e5780601f10610c2357610100808354040283529160200191610c4e565b820191906000526020600020905b815481529060010190602001808311610c3157829003601f168201915b5050505050905090565b610c6a610c63611050565b8383611621565b5050565b610c7f610c79611050565b83611111565b610cbe576040517f08c379a0000000000000000000000000000000000000000000000000000000008152600401610cb5906128d8565b60405180910390fd5b610cca8484848461178e565b50505050565b661c6bf52634000081565b6060610ce682611005565b6000610cf06117ea565b90506000815111610d105760405180602001604052806000815250610d3b565b80610d1a8461187c565b604051602001610d2b929190612635565b6040516020818303038152906040525b915050919050565b60088054610d5090612b60565b80601f0160208091040260200160405190810160405280929190818152602001828054610d7c90612b60565b8015610dc95780601f10610d9e57610100808354040283529160200191610dc9565b820191906000526020600020905b815481529060010190602001808311610dac57829003601f168201915b505050505081565b60007f000000000000000000000000000000000000000000000000000000000000000073ffffffffffffffffffffffffffffffffffffffff1663e3a9db1a836040518263ffffffff1660e01b8152600401610e2c9190612659565b60206040518083038186803b158015610e4457600080fd5b505afa158015610e58573d6000803e3d6000fd5b505050506040513d601f19601f82011682018060405250810190610e7c9190612320565b9050919050565b6000600560008473ffffffffffffffffffffffffffffffffffffffff1673ffffffffffffffffffffffffffffffffffffffff16815260200190815260200160002060008373ffffffffffffffffffffffffffffffffffffffff1673ffffffffffffffffffffffffffffffffffffffff16815260200190815260200160002060009054906101000a900460ff16905092915050565b610f1f61140d565b600073ffffffffffffffffffffffffffffffffffffffff168173ffffffffffffffffffffffffffffffffffffffff161415610f8f576040517f08c379a0000000000000000000000000000000000000000000000000000000008152600401610f8690612738565b60405180910390fd5b610f9881611527565b50565b60007f01ffc9a7000000000000000000000000000000000000000000000000000000007bffffffffffffffffffffffffffffffffffffffffffffffffffffffff1916827bffffffffffffffffffffffffffffffffffffffffffffffffffffffff1916149050919050565b61100e81611a29565b61104d576040517f08c379a000000000000000000000000000000000000000000000000000000000815260040161104490612878565b60405180910390fd5b50565b600033905090565b816004600083815260200190815260200160002060006101000a81548173ffffffffffffffffffffffffffffffffffffffff021916908373ffffffffffffffffffffffffffffffffffffffff160217905550808273ffffffffffffffffffffffffffffffffffffffff166110cb83610950565b73ffffffffffffffffffffffffffffffffffffffff167f8c5be1e5ebec7d5bd14f71427d1e84f3dd0314c0f7b2291e5b200ac8c7c3b92560405160405180910390a45050565b60008061111d83610950565b90508073ffffffffffffffffffffffffffffffffffffffff168473ffffffffffffffffffffffffffffffffffffffff16148061115f575061115e8185610e83565b5b8061119d57508373ffffffffffffffffffffffffffffffffffffffff166111858461072b565b73ffffffffffffffffffffffffffffffffffffffff16145b91505092915050565b8273ffffffffffffffffffffffffffffffffffffffff166111c682610950565b73ffffffffffffffffffffffffffffffffffffffff161461121c576040517f08c379a000000000000000000000000000000000000000000000000000000000815260040161121390612758565b60405180910390fd5b600073ffffffffffffffffffffffffffffffffffffffff168273ffffffffffffffffffffffffffffffffffffffff16141561128c576040517f08c379a000000000000000000000000000000000000000000000000000000000815260040161128390612798565b60405180910390fd5b611297838383611a95565b6112a2600082611058565b6001600360008573ffffffffffffffffffffffffffffffffffffffff1673ffffffffffffffffffffffffffffffffffffffff16815260200190815260200160002060008282546112f29190612a64565b925050819055506001600360008473ffffffffffffffffffffffffffffffffffffffff1673ffffffffffffffffffffffffffffffffffffffff168152602001908152602001600020600082825461134991906129dd565b92505081905550816002600083815260200190815260200160002060006101000a81548173ffffffffffffffffffffffffffffffffffffffff021916908373ffffffffffffffffffffffffffffffffffffffff160217905550808273ffffffffffffffffffffffffffffffffffffffff168473ffffffffffffffffffffffffffffffffffffffff167fddf252ad1be2c89b69c2b068fc378daa952ba7f163c4a11628f55a4df523b3ef60405160405180910390a4611408838383611a9a565b505050565b611415611050565b73ffffffffffffffffffffffffffffffffffffffff16611433610b96565b73ffffffffffffffffffffffffffffffffffffffff1614611489576040517f08c379a000000000000000000000000000000000000000000000000000000000815260040161148090612858565b60405180910390fd5b565b7f000000000000000000000000000000000000000000000000000000000000000073ffffffffffffffffffffffffffffffffffffffff166351cff8d9826040518263ffffffff1660e01b81526004016114e49190612674565b600060405180830381600087803b1580156114fe57600080fd5b505af1158015611512573d6000803e3d6000fd5b5050505050565b600081600001549050919050565b6000600660009054906101000a900473ffffffffffffffffffffffffffffffffffffffff16905081600660006101000a81548173ffffffffffffffffffffffffffffffffffffffff021916908373ffffffffffffffffffffffffffffffffffffffff1602179055508173ffffffffffffffffffffffffffffffffffffffff168173ffffffffffffffffffffffffffffffffffffffff167f8be0079c531659141344cd1fd0a4f28419497f9722a3daafe3b4186f6b6457e060405160405180910390a35050565b6001816000016000828254019250508190555050565b61161d828260405180602001604052806000815250611a9f565b5050565b8173ffffffffffffffffffffffffffffffffffffffff168373ffffffffffffffffffffffffffffffffffffffff161415611690576040517f08c379a0000000000000000000000000000000000000000000000000000000008152600401611687906127b8565b60405180910390fd5b80600560008573ffffffffffffffffffffffffffffffffffffffff1673ffffffffffffffffffffffffffffffffffffffff16815260200190815260200160002060008473ffffffffffffffffffffffffffffffffffffffff1673ffffffffffffffffffffffffffffffffffffffff16815260200190815260200160002060006101000a81548160ff0219169083151502179055508173ffffffffffffffffffffffffffffffffffffffff168373ffffffffffffffffffffffffffffffffffffffff167f17307eab39ab6107e8899845ad3d59bd9653f200f220920489ca2b5937696c318360405161178191906126db565b60405180910390a3505050565b6117998484846111a6565b6117a584848484611afa565b6117e4576040517f08c379a00000000000000000000000000000000000000000000000000000000081526004016117db90612718565b60405180910390fd5b50505050565b6060600880546117f990612b60565b80601f016020809104026020016040519081016040528092919081815260200182805461182590612b60565b80156118725780601f1061184757610100808354040283529160200191611872565b820191906000526020600020905b81548152906001019060200180831161185557829003601f168201915b5050505050905090565b606060008214156118c4576040518060400160405280600181526020017f30000000000000000000000000000000000000000000000000000000000000008152509050611a24565b600082905060005b600082146118f65780806118df90612bc3565b915050600a826118ef9190612a33565b91506118cc565b60008167ffffffffffffffff811115611938577f4e487b7100000000000000000000000000000000000000000000000000000000600052604160045260246000fd5b6040519080825280601f01601f19166020018201604052801561196a5781602001600182028036833780820191505090505b5090505b60008514611a1d576001826119839190612a64565b9150600a856119929190612c0c565b603061199e91906129dd565b60f81b8183815181106119da577f4e487b7100000000000000000000000000000000000000000000000000000000600052603260045260246000fd5b60200101907effffffffffffffffffffffffffffffffffffffffffffffffffffffffffffff1916908160001a905350600a85611a169190612a33565b945061196e565b8093505050505b919050565b60008073ffffffffffffffffffffffffffffffffffffffff166002600084815260200190815260200160002060009054906101000a900473ffffffffffffffffffffffffffffffffffffffff1673ffffffffffffffffffffffffffffffffffffffff1614159050919050565b505050565b505050565b611aa98383611c91565b611ab66000848484611afa565b611af5576040517f08c379a0000000000000000000000000000000000000000000000000000000008152600401611aec90612718565b60405180910390fd5b505050565b6000611b1b8473ffffffffffffffffffffffffffffffffffffffff16611e6b565b15611c84578373ffffffffffffffffffffffffffffffffffffffff1663150b7a02611b44611050565b8786866040518563ffffffff1660e01b8152600401611b66949392919061268f565b602060405180830381600087803b158015611b8057600080fd5b505af1925050508015611bb157506040513d601f19601f82011682018060405250810190611bae919061228d565b60015b611c34573d8060008114611be1576040519150601f19603f3d011682016040523d82523d6000602084013e611be6565b606091505b50600081511415611c2c576040517f08c379a0000000000000000000000000000000000000000000000000000000008152600401611c2390612718565b60405180910390fd5b805181602001fd5b63150b7a0260e01b7bffffffffffffffffffffffffffffffffffffffffffffffffffffffff1916817bffffffffffffffffffffffffffffffffffffffffffffffffffffffff191614915050611c89565b600190505b949350505050565b600073ffffffffffffffffffffffffffffffffffffffff168273ffffffffffffffffffffffffffffffffffffffff161415611d01576040517f08c379a0000000000000000000000000000000000000000000000000000000008152600401611cf890612838565b60405180910390fd5b611d0a81611a29565b15611d4a576040517f08c379a0000000000000000000000000000000000000000000000000000000008152600401611d4190612778565b60405180910390fd5b611d5660008383611a95565b6001600360008473ffffffffffffffffffffffffffffffffffffffff1673ffffffffffffffffffffffffffffffffffffffff1681526020019081526020016000206000828254611da691906129dd565b92505081905550816002600083815260200190815260200160002060006101000a81548173ffffffffffffffffffffffffffffffffffffffff021916908373ffffffffffffffffffffffffffffffffffffffff160217905550808273ffffffffffffffffffffffffffffffffffffffff16600073ffffffffffffffffffffffffffffffffffffffff167fddf252ad1be2c89b69c2b068fc378daa952ba7f163c4a11628f55a4df523b3ef60405160405180910390a4611e6760008383611a9a565b5050565b6000808273ffffffffffffffffffffffffffffffffffffffff163b119050919050565b828054611e9a90612b60565b90600052602060002090601f016020900481019282611ebc5760008555611f03565b82601f10611ed557805160ff1916838001178555611f03565b82800160010185558215611f03579182015b82811115611f02578251825591602001919060010190611ee7565b5b509050611f109190611f14565b5090565b5b80821115611f2d576000816000905550600101611f15565b5090565b6000611f44611f3f84612938565b612913565b905082815260208101848484011115611f5c57600080fd5b611f67848285612b1e565b509392505050565b6000611f82611f7d84612969565b612913565b905082815260208101848484011115611f9a57600080fd5b611fa5848285612b1e565b509392505050565b600081359050611fbc816130c7565b92915050565b600081359050611fd1816130de565b92915050565b600081359050611fe6816130f5565b92915050565b600081359050611ffb8161310c565b92915050565b6000815190506120108161310c565b92915050565b600082601f83011261202757600080fd5b8135612037848260208601611f31565b91505092915050565b600082601f83011261205157600080fd5b8135612061848260208601611f6f565b91505092915050565b60008135905061207981613123565b92915050565b60008151905061208e81613123565b92915050565b6000602082840312156120a657600080fd5b60006120b484828501611fad565b91505092915050565b6000602082840312156120cf57600080fd5b60006120dd84828501611fc2565b91505092915050565b600080604083850312156120f957600080fd5b600061210785828601611fad565b925050602061211885828601611fad565b9150509250929050565b60008060006060848603121561213757600080fd5b600061214586828701611fad565b935050602061215686828701611fad565b92505060406121678682870161206a565b9150509250925092565b6000806000806080858703121561218757600080fd5b600061219587828801611fad565b94505060206121a687828801611fad565b93505060406121b78782880161206a565b925050606085013567ffffffffffffffff8111156121d457600080fd5b6121e087828801612016565b91505092959194509250565b600080604083850312156121ff57600080fd5b600061220d85828601611fad565b925050602061221e85828601611fd7565b9150509250929050565b6000806040838503121561223b57600080fd5b600061224985828601611fad565b925050602061225a8582860161206a565b9150509250929050565b60006020828403121561227657600080fd5b600061228484828501611fec565b91505092915050565b60006020828403121561229f57600080fd5b60006122ad84828501612001565b91505092915050565b6000602082840312156122c857600080fd5b600082013567ffffffffffffffff8111156122e257600080fd5b6122ee84828501612040565b91505092915050565b60006020828403121561230957600080fd5b60006123178482850161206a565b91505092915050565b60006020828403121561233257600080fd5b60006123408482850161207f565b91505092915050565b61235281612aaa565b82525050565b61236181612a98565b82525050565b61237081612abc565b82525050565b60006123818261299a565b61238b81856129b0565b935061239b818560208601612b2d565b6123a481612cf9565b840191505092915050565b60006123ba826129a5565b6123c481856129c1565b93506123d4818560208601612b2d565b6123dd81612cf9565b840191505092915050565b60006123f3826129a5565b6123fd81856129d2565b935061240d818560208601612b2d565b80840191505092915050565b60006124266032836129c1565b915061243182612d0a565b604082019050919050565b60006124496026836129c1565b915061245482612d59565b604082019050919050565b600061246c6025836129c1565b915061247782612da8565b604082019050919050565b600061248f601c836129c1565b915061249a82612df7565b602082019050919050565b60006124b26024836129c1565b91506124bd82612e20565b604082019050919050565b60006124d56019836129c1565b91506124e082612e6f565b602082019050919050565b60006124f8602e836129c1565b915061250382612e98565b604082019050919050565b600061251b6029836129c1565b915061252682612ee7565b604082019050919050565b600061253e603e836129c1565b915061254982612f36565b604082019050919050565b60006125616020836129c1565b915061256c82612f85565b602082019050919050565b60006125846020836129c1565b915061258f82612fae565b602082019050919050565b60006125a76018836129c1565b91506125b282612fd7565b602082019050919050565b60006125ca6021836129c1565b91506125d582613000565b604082019050919050565b60006125ed6012836129c1565b91506125f88261304f565b602082019050919050565b6000612610602e836129c1565b915061261b82613078565b604082019050919050565b61262f81612b14565b82525050565b600061264182856123e8565b915061264d82846123e8565b91508190509392505050565b600060208201905061266e6000830184612358565b92915050565b60006020820190506126896000830184612349565b92915050565b60006080820190506126a46000830187612358565b6126b16020830186612358565b6126be6040830185612626565b81810360608301526126d08184612376565b905095945050505050565b60006020820190506126f06000830184612367565b92915050565b6000602082019050818103600083015261271081846123af565b905092915050565b6000602082019050818103600083015261273181612419565b9050919050565b600060208201905081810360008301526127518161243c565b9050919050565b600060208201905081810360008301526127718161245f565b9050919050565b6000602082019050818103600083015261279181612482565b9050919050565b600060208201905081810360008301526127b1816124a5565b9050919050565b600060208201905081810360008301526127d1816124c8565b9050919050565b600060208201905081810360008301526127f1816124eb565b9050919050565b600060208201905081810360008301526128118161250e565b9050919050565b6000602082019050818103600083015261283181612531565b9050919050565b6000602082019050818103600083015261285181612554565b9050919050565b6000602082019050818103600083015261287181612577565b9050919050565b600060208201905081810360008301526128918161259a565b9050919050565b600060208201905081810360008301526128b1816125bd565b9050919050565b600060208201905081810360008301526128d1816125e0565b9050919050565b600060208201905081810360008301526128f181612603565b9050919050565b600060208201905061290d6000830184612626565b92915050565b600061291d61292e565b90506129298282612b92565b919050565b6000604051905090565b600067ffffffffffffffff82111561295357612952612cca565b5b61295c82612cf9565b9050602081019050919050565b600067ffffffffffffffff82111561298457612983612cca565b5b61298d82612cf9565b9050602081019050919050565b600081519050919050565b600081519050919050565b600082825260208201905092915050565b600082825260208201905092915050565b600081905092915050565b60006129e882612b14565b91506129f383612b14565b9250827fffffffffffffffffffffffffffffffffffffffffffffffffffffffffffffffff03821115612a2857612a27612c3d565b5b828201905092915050565b6000612a3e82612b14565b9150612a4983612b14565b925082612a5957612a58612c6c565b5b828204905092915050565b6000612a6f82612b14565b9150612a7a83612b14565b925082821015612a8d57612a8c612c3d565b5b828203905092915050565b6000612aa382612af4565b9050919050565b6000612ab582612af4565b9050919050565b60008115159050919050565b60007fffffffff0000000000000000000000000000000000000000000000000000000082169050919050565b600073ffffffffffffffffffffffffffffffffffffffff82169050919050565b6000819050919050565b82818337600083830152505050565b60005b83811015612b4b578082015181840152602081019050612b30565b83811115612b5a576000848401525b50505050565b60006002820490506001821680612b7857607f821691505b60208210811415612b8c57612b8b612c9b565b5b50919050565b612b9b82612cf9565b810181811067ffffffffffffffff82111715612bba57612bb9612cca565b5b80604052505050565b6000612bce82612b14565b91507fffffffffffffffffffffffffffffffffffffffffffffffffffffffffffffffff821415612c0157612c00612c3d565b5b600182019050919050565b6000612c1782612b14565b9150612c2283612b14565b925082612c3257612c31612c6c565b5b828206905092915050565b7f4e487b7100000000000000000000000000000000000000000000000000000000600052601160045260246000fd5b7f4e487b7100000000000000000000000000000000000000000000000000000000600052601260045260246000fd5b7f4e487b7100000000000000000000000000000000000000000000000000000000600052602260045260246000fd5b7f4e487b7100000000000000000000000000000000000000000000000000000000600052604160045260246000fd5b6000601f19601f8301169050919050565b7f4552433732313a207472616e7366657220746f206e6f6e20455243373231526560008201527f63656976657220696d706c656d656e7465720000000000000000000000000000602082015250565b7f4f776e61626c653a206e6577206f776e657220697320746865207a65726f206160008201527f6464726573730000000000000000000000000000000000000000000000000000602082015250565b7f4552433732313a207472616e736665722066726f6d20696e636f72726563742060008201527f6f776e6572000000000000000000000000000000000000000000000000000000602082015250565b7f4552433732313a20746f6b656e20616c7265616479206d696e74656400000000600082015250565b7f4552433732313a207472616e7366657220746f20746865207a65726f2061646460008201527f7265737300000000000000000000000000000000000000000000000000000000602082015250565b7f4552433732313a20617070726f766520746f2063616c6c657200000000000000600082015250565b7f5472616e73616374696f6e2076616c756520646964206e6f7420657175616c2060008201527f746865206d696e74207072696365000000000000000000000000000000000000602082015250565b7f4552433732313a2061646472657373207a65726f206973206e6f74206120766160008201527f6c6964206f776e65720000000000000000000000000000000000000000000000602082015250565b7f4552433732313a20617070726f76652063616c6c6572206973206e6f7420746f60008201527f6b656e206f776e6572206e6f7220617070726f76656420666f7220616c6c0000602082015250565b7f4552433732313a206d696e7420746f20746865207a65726f2061646472657373600082015250565b7f4f776e61626c653a2063616c6c6572206973206e6f7420746865206f776e6572600082015250565b7f4552433732313a20696e76616c696420746f6b656e2049440000000000000000600082015250565b7f4552433732313a20617070726f76616c20746f2063757272656e74206f776e6560008201527f7200000000000000000000000000000000000000000000000000000000000000602082015250565b7f4d617820737570706c7920726561636865640000000000000000000000000000600082015250565b7f4552433732313a2063616c6c6572206973206e6f7420746f6b656e206f776e6560008201527f72206e6f7220617070726f766564000000000000000000000000000000000000602082015250565b6130d081612a98565b81146130db57600080fd5b50565b6130e781612aaa565b81146130f257600080fd5b50565b6130fe81612abc565b811461310957600080fd5b50565b61311581612ac8565b811461312057600080fd5b50565b61312c81612b14565b811461313757600080fd5b5056fea264697066735822122041990f0ae3ff477a0517eb12a78eda334f08ec17fbdad6107227ea2ced2879c464736f6c63430008010033608060405234801561001057600080fd5b5061002d61002261003260201b60201c565b61003a60201b60201c565b6100fe565b600033905090565b60008060009054906101000a900473ffffffffffffffffffffffffffffffffffffffff169050816000806101000a81548173ffffffffffffffffffffffffffffffffffffffff021916908373ffffffffffffffffffffffffffffffffffffffff1602179055508173ffffffffffffffffffffffffffffffffffffffff168173ffffffffffffffffffffffffffffffffffffffff167f8be0079c531659141344cd1fd0a4f28419497f9722a3daafe3b4186f6b6457e060405160405180910390a35050565b610aaa8061010d6000396000f3fe6080604052600436106100555760003560e01c806351cff8d91461005a578063715018a6146100835780638da5cb5b1461009a578063e3a9db1a146100c5578063f2fde38b14610102578063f340fa011461012b575b600080fd5b34801561006657600080fd5b50610081600480360381019061007c91906106a3565b610147565b005b34801561008f57600080fd5b50610098610253565b005b3480156100a657600080fd5b506100af610267565b6040516100bc91906107ae565b60405180910390f35b3480156100d157600080fd5b506100ec60048036038101906100e7919061067a565b610290565b6040516100f99190610849565b60405180910390f35b34801561010e57600080fd5b506101296004803603810190610124919061067a565b6102d9565b005b6101456004803603810190610140919061067a565b61035d565b005b61014f610412565b6000600160008373ffffffffffffffffffffffffffffffffffffffff1673ffffffffffffffffffffffffffffffffffffffff1681526020019081526020016000205490506000600160008473ffffffffffffffffffffffffffffffffffffffff1673ffffffffffffffffffffffffffffffffffffffff16815260200190815260200160002081905550610201818373ffffffffffffffffffffffffffffffffffffffff1661049090919063ffffffff16565b8173ffffffffffffffffffffffffffffffffffffffff167f7084f5476618d8e60b11ef0d7d3f06914655adb8793e28ff7f018d4c76d505d5826040516102479190610849565b60405180910390a25050565b61025b610412565b6102656000610584565b565b60008060009054906101000a900473ffffffffffffffffffffffffffffffffffffffff16905090565b6000600160008373ffffffffffffffffffffffffffffffffffffffff1673ffffffffffffffffffffffffffffffffffffffff168152602001908152602001600020549050919050565b6102e1610412565b600073ffffffffffffffffffffffffffffffffffffffff168173ffffffffffffffffffffffffffffffffffffffff161415610351576040517f08c379a0000000000000000000000000000000000000000000000000000000008152600401610348906107c9565b60405180910390fd5b61035a81610584565b50565b610365610412565b600034905080600160008473ffffffffffffffffffffffffffffffffffffffff1673ffffffffffffffffffffffffffffffffffffffff16815260200190815260200160002060008282546103b99190610880565b925050819055508173ffffffffffffffffffffffffffffffffffffffff167f2da466a7b24304f47e87fa2e1e5a81b9831ce54fec19055ce277ca2f39ba42c4826040516104069190610849565b60405180910390a25050565b61041a610648565b73ffffffffffffffffffffffffffffffffffffffff16610438610267565b73ffffffffffffffffffffffffffffffffffffffff161461048e576040517f08c379a000000000000000000000000000000000000000000000000000000000815260040161048590610829565b60405180910390fd5b565b804710156104d3576040517f08c379a00000000000000000000000000000000000000000000000000000000081526004016104ca90610809565b60405180910390fd5b60008273ffffffffffffffffffffffffffffffffffffffff16826040516104f990610799565b60006040518083038185875af1925050503d8060008114610536576040519150601f19603f3d011682016040523d82523d6000602084013e61053b565b606091505b505090508061057f576040517f08c379a0000000000000000000000000000000000000000000000000000000008152600401610576906107e9565b60405180910390fd5b505050565b60008060009054906101000a900473ffffffffffffffffffffffffffffffffffffffff169050816000806101000a81548173ffffffffffffffffffffffffffffffffffffffff021916908373ffffffffffffffffffffffffffffffffffffffff1602179055508173ffffffffffffffffffffffffffffffffffffffff168173ffffffffffffffffffffffffffffffffffffffff167f8be0079c531659141344cd1fd0a4f28419497f9722a3daafe3b4186f6b6457e060405160405180910390a35050565b600033905090565b60008135905061065f81610a46565b92915050565b60008135905061067481610a5d565b92915050565b60006020828403121561068c57600080fd5b600061069a84828501610650565b91505092915050565b6000602082840312156106b557600080fd5b60006106c384828501610665565b91505092915050565b6106d5816108d6565b82525050565b60006106e860268361086f565b91506106f382610953565b604082019050919050565b600061070b603a8361086f565b9150610716826109a2565b604082019050919050565b600061072e601d8361086f565b9150610739826109f1565b602082019050919050565b600061075160208361086f565b915061075c82610a1a565b602082019050919050565b6000610774600083610864565b915061077f82610a43565b600082019050919050565b6107938161091a565b82525050565b60006107a482610767565b9150819050919050565b60006020820190506107c360008301846106cc565b92915050565b600060208201905081810360008301526107e2816106db565b9050919050565b60006020820190508181036000830152610802816106fe565b9050919050565b6000602082019050818103600083015261082281610721565b9050919050565b6000602082019050818103600083015261084281610744565b9050919050565b600060208201905061085e600083018461078a565b92915050565b600081905092915050565b600082825260208201905092915050565b600061088b8261091a565b91506108968361091a565b9250827fffffffffffffffffffffffffffffffffffffffffffffffffffffffffffffffff038211156108cb576108ca610924565b5b828201905092915050565b60006108e1826108fa565b9050919050565b60006108f3826108fa565b9050919050565b600073ffffffffffffffffffffffffffffffffffffffff82169050919050565b6000819050919050565b7f4e487b7100000000000000000000000000000000000000000000000000000000600052601160045260246000fd5b7f4f776e61626c653a206e6577206f776e657220697320746865207a65726f206160008201527f6464726573730000000000000000000000000000000000000000000000000000602082015250565b7f416464726573733a20756e61626c6520746f2073656e642076616c75652c207260008201527f6563697069656e74206d61792068617665207265766572746564000000000000602082015250565b7f416464726573733a20696e73756666696369656e742062616c616e6365000000600082015250565b7f4f776e61626c653a2063616c6c6572206973206e6f7420746865206f776e6572600082015250565b50565b610a4f816108d6565b8114610a5a57600080fd5b50565b610a66816108e8565b8114610a7157600080fd5b5056fea26469706673582212208572fc3f6c137b8243928f2f2df2b1b4a84c2f286c9f749c054889c9c924d69b64736f6c63430008010033",
  "linkReferences": {},
  "deployedLinkReferences": {}
}